{
  "transactions": [
    {
      "hash": "0x4829ad2cc491c4b06b27d16873ce33d3b6c01c588d7065adeb5814cc3c445510",
      "transactionType": "CALL",
      "contractName": null,
      "contractAddress": "0x0a95e72be5eddcf265c2a6a8381a44225b04590f",
      "function": "applyChainUpdates((uint64,bool,bytes,bytes,(bool,uint128,uint128),(bool,uint128,uint128))[])",
      "arguments": [
        "[(3478487238524512106, true, 0x000000000000000000000000b9d4d9345bcb8c029071d0f04eef3b302bbe6e04, 0x0000000000000000000000009e73fbf603ba47598c91287abebae6bcdee9e8b1, (false, 0, 0), (false, 0, 0))]"
      ],
      "transaction": {
        "from": "0xf6ac8a8715024fe9ff592d6a3f186e2b502b356a",
        "to": "0x0a95e72be5eddcf265c2a6a8381a44225b04590f",
        "gas": "0x525dc",
        "value": "0x0",
        "input": "0xdb6327dc000000000000000000000000000000000000000000000000000000000000002000000000000000000000000000000000000000000000000000000000000000010000000000000000000000000000000000000000000000000000000000000020000000000000000000000000000000000000000000000000304611b6affba76a0000000000000000000000000000000000000000000000000000000000000001000000000000000000000000000000000000000000000000000000000000014000000000000000000000000000000000000000000000000000000000000001800000000000000000000000000000000000000000000000000000000000000000000000000000000000000000000000000000000000000000000000000000000000000000000000000000000000000000000000000000000000000000000000000000000000000000000000000000000000000000000000000000000000000000000000000000000000000000000000000000000000000000000000000000000000000000000000000000000000000000000000000000000000000000000000000000000000000000000000000000000000000000000000000000000000000020000000000000000000000000b9d4d9345bcb8c029071d0f04eef3b302bbe6e0400000000000000000000000000000000000000000000000000000000000000200000000000000000000000009e73fbf603ba47598c91287abebae6bcdee9e8b1",
        "nonce": "0x6e",
        "chainId": "0xaa36a7"
      },
      "additionalContracts": [],
      "isFixedGasLimit": false
    }
  ],
  "receipts": [
    {
      "status": "0x1",
      "cumulativeGasUsed": "0x11f7f4e",
      "logs": [
        {
          "address": "0x0a95e72be5eddcf265c2a6a8381a44225b04590f",
          "topics": [
            "0x8d340f17e19058004c20453540862a9c62778504476f6756755cb33bcd6c38c2"
          ],
          "data": "0x000000000000000000000000000000000000000000000000304611b6affba76a000000000000000000000000000000000000000000000000000000000000010000000000000000000000000000000000000000000000000000000000000000000000000000000000000000000000000000000000000000000000000000000000000000000000000000000000000000000000000000000000000000000000000000000000000000000000000000000000000000000000000000000000000000000000000000000000000000000000000000000000000000000000000000000000000000000000000000000000000000000000000000000000000000000000000000000000000000000000000000000000000000000000000000000000000000200000000000000000000000009e73fbf603ba47598c91287abebae6bcdee9e8b1",
          "blockHash": "0x940b8d2639acb93e2df15028ed3501e73dad2ee54c5e62e4c5bc252052f5f2b4",
          "blockNumber": "0x843db7",
          "blockTimestamp": "0x68636400",
          "transactionHash": "0x4829ad2cc491c4b06b27d16873ce33d3b6c01c588d7065adeb5814cc3c445510",
          "transactionIndex": "0x13c",
          "logIndex": "0x11a",
          "removed": false
        }
      ],
      "logsBloom": "0x00000000000000400000000000000000000000000000000000000000000000000000000000000000000000000000000000000000000000000004000000000000000000000000000000000000000000000000000000000000000000000000000000000000000000400000000000000000000000000000000000000000000000000000000000000000000000000000000000000000000000000000000000000000000000000000000000000000000000000000000000000000000000000000000000200000000000000000000000000000000000000000000000000000000000000000000000000000000000000000000000000000000000000100000000100000",
      "type": "0x2",
      "transactionHash": "0x4829ad2cc491c4b06b27d16873ce33d3b6c01c588d7065adeb5814cc3c445510",
      "transactionIndex": "0x13c",
      "blockHash": "0x940b8d2639acb93e2df15028ed3501e73dad2ee54c5e62e4c5bc252052f5f2b4",
      "blockNumber": "0x843db7",
      "gasUsed": "0x3ba1c",
      "effectiveGasPrice": "0x9a5559f6",
      "from": "0xf6ac8a8715024fe9ff592d6a3f186e2b502b356a",
      "to": "0x0a95e72be5eddcf265c2a6a8381a44225b04590f",
      "contractAddress": null
    }
  ],
  "libraries": [],
  "pending": [],
  "returns": {},
  "timestamp": 1751344128,
  "chain": 11155111,
  "commit": "0c61483"
}