{
  "transactions": [
    {
      "hash": "0xe204489c4b5f77fc1839593facdbf23b015b26a6699ccb4eca55a8a51a6d5e11",
      "transactionType": "CALL",
      "contractName": null,
      "contractAddress": "0x111016eabaa628dda9705df7c242dfd82a2fb605",
      "function": "applyChainUpdates((uint64,bool,bytes,bytes,(bool,uint128,uint128),(bool,uint128,uint128))[])",
      "arguments": [
        "[(3478487238524512106, true, 0x000000000000000000000000769cd0d5a47786b8fd7afb1b469266fbadd6bf0e, 0x000000000000000000000000a2b99460bc8f37a2f98fa7b5b2e089f656a683e0, (false, 0, 0), (false, 0, 0))]"
      ],
      "transaction": {
        "from": "0xf6ac8a8715024fe9ff592d6a3f186e2b502b356a",
        "to": "0x111016eabaa628dda9705df7c242dfd82a2fb605",
        "gas": "0x525dc",
        "value": "0x0",
        "input": "0xdb6327dc000000000000000000000000000000000000000000000000000000000000002000000000000000000000000000000000000000000000000000000000000000010000000000000000000000000000000000000000000000000000000000000020000000000000000000000000000000000000000000000000304611b6affba76a0000000000000000000000000000000000000000000000000000000000000001000000000000000000000000000000000000000000000000000000000000014000000000000000000000000000000000000000000000000000000000000001800000000000000000000000000000000000000000000000000000000000000000000000000000000000000000000000000000000000000000000000000000000000000000000000000000000000000000000000000000000000000000000000000000000000000000000000000000000000000000000000000000000000000000000000000000000000000000000000000000000000000000000000000000000000000000000000000000000000000000000000000000000000000000000000000000000000000000000000000000000000000000000000000000000000000020000000000000000000000000769cd0d5a47786b8fd7afb1b469266fbadd6bf0e0000000000000000000000000000000000000000000000000000000000000020000000000000000000000000a2b99460bc8f37a2f98fa7b5b2e089f656a683e0",
        "nonce": "0x64",
        "chainId": "0xaa36a7"
      },
      "additionalContracts": [],
      "isFixedGasLimit": false
    }
  ],
  "receipts": [
    {
      "status": "0x1",
      "cumulativeGasUsed": "0xda1bac",
      "logs": [
        {
          "address": "0x111016eabaa628dda9705df7c242dfd82a2fb605",
          "topics": [
            "0x8d340f17e19058004c20453540862a9c62778504476f6756755cb33bcd6c38c2"
          ],
          "data": "0x000000000000000000000000000000000000000000000000304611b6affba76a00000000000000000000000000000000000000000000000000000000000001000000000000000000000000000000000000000000000000000000000000000000000000000000000000000000000000000000000000000000000000000000000000000000000000000000000000000000000000000000000000000000000000000000000000000000000000000000000000000000000000000000000000000000000000000000000000000000000000000000000000000000000000000000000000000000000000000000000000000000000000000000000000000000000000000000000000000000000000000000000000000000000000000000000000000020000000000000000000000000a2b99460bc8f37a2f98fa7b5b2e089f656a683e0",
          "blockHash": "0x79979878b37715bd9a41cd8e392f0faf81088b8d48cdf37eb63c168adaf5c529",
          "blockNumber": "0x843d61",
          "blockTimestamp": "0x68635fe0",
          "transactionHash": "0xe204489c4b5f77fc1839593facdbf23b015b26a6699ccb4eca55a8a51a6d5e11",
          "transactionIndex": "0xf0",
          "logIndex": "0xca",
          "removed": false
        }
      ],
      "logsBloom": "0x00000000000000400000000000000000000000000000000000000000000000000000000000000000000000000000000000010000000000000004000000000000000000000000000000000000000000000000000000000000000000000000000000000000004000000000000000000000000000000000000000000000000000000000000000000000000000000000000000000000000000000000000000000000000000000000000000000000000000000000000000000000000000000000000000000000000000000000000000000000000000000000000000000000000000000000000000000000000000000000000000000000400000000100000000000000",
      "type": "0x2",
      "transactionHash": "0xe204489c4b5f77fc1839593facdbf23b015b26a6699ccb4eca55a8a51a6d5e11",
      "transactionIndex": "0xf0",
      "blockHash": "0x79979878b37715bd9a41cd8e392f0faf81088b8d48cdf37eb63c168adaf5c529",
      "blockNumber": "0x843d61",
      "gasUsed": "0x3ba1c",
      "effectiveGasPrice": "0x44632881",
      "from": "0xf6ac8a8715024fe9ff592d6a3f186e2b502b356a",
      "to": "0x111016eabaa628dda9705df7c242dfd82a2fb605",
      "contractAddress": null
    }
  ],
  "libraries": [],
  "pending": [],
  "returns": {},
  "timestamp": 1751343073,
  "chain": 11155111,
  "commit": "0c61483"
}