{
  "transactions": [
    {
      "hash": "0x43d002176664ce22a2634ed0077eb1ebc119a1c5e0977e841a85dbbe1e621666",
      "transactionType": "CALL",
      "contractName": null,
      "contractAddress": "0xea9600b34ab8e04e7fbc8b496cf5bca45e32bd06",
      "function": "applyChainUpdates((uint64,bool,bytes,bytes,(bool,uint128,uint128),(bool,uint128,uint128))[])",
      "arguments": [
        "[(3478487238524512106, true, 0x0000000000000000000000004b3f244080f8433e13a43d7c746cbf3107a7801b, 0x0000000000000000000000005853737452b1818c38dd1ebd861663c5c4978431, (false, 0, 0), (false, 0, 0))]"
      ],
      "transaction": {
        "from": "0xf6ac8a8715024fe9ff592d6a3f186e2b502b356a",
        "to": "0xea9600b34ab8e04e7fbc8b496cf5bca45e32bd06",
        "gas": "0x525dc",
        "value": "0x0",
        "input": "0xdb6327dc000000000000000000000000000000000000000000000000000000000000002000000000000000000000000000000000000000000000000000000000000000010000000000000000000000000000000000000000000000000000000000000020000000000000000000000000000000000000000000000000304611b6affba76a00000000000000000000000000000000000000000000000000000000000000010000000000000000000000000000000000000000000000000000000000000140000000000000000000000000000000000000000000000000000000000000018000000000000000000000000000000000000000000000000000000000000000000000000000000000000000000000000000000000000000000000000000000000000000000000000000000000000000000000000000000000000000000000000000000000000000000000000000000000000000000000000000000000000000000000000000000000000000000000000000000000000000000000000000000000000000000000000000000000000000000000000000000000000000000000000000000000000000000000000000000000000000000000000000000000000000200000000000000000000000004b3f244080f8433e13a43d7c746cbf3107a7801b00000000000000000000000000000000000000000000000000000000000000200000000000000000000000005853737452b1818c38dd1ebd861663c5c4978431",
        "nonce": "0x7e",
        "chainId": "0xaa36a7"
      },
      "additionalContracts": [],
      "isFixedGasLimit": false
    }
  ],
  "receipts": [
    {
      "status": "0x1",
      "cumulativeGasUsed": "0x190b088",
      "logs": [
        {
          "address": "0xea9600b34ab8e04e7fbc8b496cf5bca45e32bd06",
          "topics": [
            "0x8d340f17e19058004c20453540862a9c62778504476f6756755cb33bcd6c38c2"
          ],
          "data": "0x000000000000000000000000000000000000000000000000304611b6affba76a000000000000000000000000000000000000000000000000000000000000010000000000000000000000000000000000000000000000000000000000000000000000000000000000000000000000000000000000000000000000000000000000000000000000000000000000000000000000000000000000000000000000000000000000000000000000000000000000000000000000000000000000000000000000000000000000000000000000000000000000000000000000000000000000000000000000000000000000000000000000000000000000000000000000000000000000000000000000000000000000000000000000000000000000000000200000000000000000000000005853737452b1818c38dd1ebd861663c5c4978431",
          "blockHash": "0x0d6ae54a6c72f09d83300ea2fcc5d6dc8f5b3bd59c69a955bd4db9b1899c48c9",
          "blockNumber": "0x843e1d",
          "blockTimestamp": "0x686368c8",
          "transactionHash": "0x43d002176664ce22a2634ed0077eb1ebc119a1c5e0977e841a85dbbe1e621666",
          "transactionIndex": "0xf2",
          "logIndex": "0x193",
          "removed": false
        }
      ],
      "logsBloom": "0x00000000000000400000800000000000000000000000000000000000000000000000000000000000000000000000000000000000000000000004000000000000000000000000000000000000000000000000000000000000000000000000100000000000000000000000000000000000000000000000000000000000000000000000000000000000000000000000000000000000000000000000000000000000000000000000000000000000000000000000000000000001000000000000000000000000000000000000000000000000000000000000000000000000000000000000000000000000000000000000000000000000000000000100000000000000",
      "type": "0x2",
      "transactionHash": "0x43d002176664ce22a2634ed0077eb1ebc119a1c5e0977e841a85dbbe1e621666",
      "transactionIndex": "0xf2",
      "blockHash": "0x0d6ae54a6c72f09d83300ea2fcc5d6dc8f5b3bd59c69a955bd4db9b1899c48c9",
      "blockNumber": "0x843e1d",
      "gasUsed": "0x3ba1c",
      "effectiveGasPrice": "0xae1bd29e",
      "from": "0xf6ac8a8715024fe9ff592d6a3f186e2b502b356a",
      "to": "0xea9600b34ab8e04e7fbc8b496cf5bca45e32bd06",
      "contractAddress": null
    }
  ],
  "libraries": [],
  "pending": [],
  "returns": {},
  "timestamp": 1751345354,
  "chain": 11155111,
  "commit": "0c61483"
}