{
  "transactions": [
    {
      "hash": "0x3b5e75cbabf82dad4f5c0639d0b64d3abf62cd23cd73f10681e22357472e13c3",
      "transactionType": "CALL",
      "contractName": null,
      "contractAddress": "0x76735e5bd54c3ddb1cb74c3439cf17fca226b3a5",
      "function": "applyChainUpdates((uint64,bool,bytes,bytes,(bool,uint128,uint128),(bool,uint128,uint128))[])",
      "arguments": [
        "[(3478487238524512106, true, 0x00000000000000000000000097024832a3c2b2c86b9c007104447806c0b8f43d, 0x000000000000000000000000e2ec73ee6ed0ac94c9eedc5c556ab2ede5020e9d, (false, 0, 0), (false, 0, 0))]"
      ],
      "transaction": {
        "from": "0xf6ac8a8715024fe9ff592d6a3f186e2b502b356a",
        "to": "0x76735e5bd54c3ddb1cb74c3439cf17fca226b3a5",
        "gas": "0x525cc",
        "value": "0x0",
        "input": "0xdb6327dc000000000000000000000000000000000000000000000000000000000000002000000000000000000000000000000000000000000000000000000000000000010000000000000000000000000000000000000000000000000000000000000020000000000000000000000000000000000000000000000000304611b6affba76a000000000000000000000000000000000000000000000000000000000000000100000000000000000000000000000000000000000000000000000000000001400000000000000000000000000000000000000000000000000000000000000180000000000000000000000000000000000000000000000000000000000000000000000000000000000000000000000000000000000000000000000000000000000000000000000000000000000000000000000000000000000000000000000000000000000000000000000000000000000000000000000000000000000000000000000000000000000000000000000000000000000000000000000000000000000000000000000000000000000000000000000000000000000000000000000000000000000000000000000000000000000000000000000000000000000000002000000000000000000000000097024832a3c2b2c86b9c007104447806c0b8f43d0000000000000000000000000000000000000000000000000000000000000020000000000000000000000000e2ec73ee6ed0ac94c9eedc5c556ab2ede5020e9d",
        "nonce": "0x74",
        "chainId": "0xaa36a7"
      },
      "additionalContracts": [],
      "isFixedGasLimit": false
    }
  ],
  "receipts": [
    {
      "status": "0x1",
      "cumulativeGasUsed": "0x15ef128",
      "logs": [
        {
          "address": "0x76735e5bd54c3ddb1cb74c3439cf17fca226b3a5",
          "topics": [
            "0x8d340f17e19058004c20453540862a9c62778504476f6756755cb33bcd6c38c2"
          ],
          "data": "0x000000000000000000000000000000000000000000000000304611b6affba76a00000000000000000000000000000000000000000000000000000000000001000000000000000000000000000000000000000000000000000000000000000000000000000000000000000000000000000000000000000000000000000000000000000000000000000000000000000000000000000000000000000000000000000000000000000000000000000000000000000000000000000000000000000000000000000000000000000000000000000000000000000000000000000000000000000000000000000000000000000000000000000000000000000000000000000000000000000000000000000000000000000000000000000000000000000020000000000000000000000000e2ec73ee6ed0ac94c9eedc5c556ab2ede5020e9d",
          "blockHash": "0x38ee637e0eb2b0eb7ac0fd814e0b976cd30047957f251b02f9cb12837dd7a1fd",
          "blockNumber": "0x843ddf",
          "blockTimestamp": "0x686365e0",
          "transactionHash": "0x3b5e75cbabf82dad4f5c0639d0b64d3abf62cd23cd73f10681e22357472e13c3",
          "transactionIndex": "0xba",
          "logIndex": "0x18c",
          "removed": false
        }
      ],
      "logsBloom": "0x00000000000000400000000000000000000000000000000000000000000000000000000010000000000000000000000000000000000000000004000000000000000000000000000000000000000000000000000000000000000000000000000000002000000000000000000000000000000000000000000000000000000000000000000000000000000000000000000000000000000000000000000000000000000000000000000000000000000000000000000000000000000000000000000000000000000000000000000000000000000010000000000000000000000000000000000000000000000000000000000000000000000000000100000000000000",
      "type": "0x2",
      "transactionHash": "0x3b5e75cbabf82dad4f5c0639d0b64d3abf62cd23cd73f10681e22357472e13c3",
      "transactionIndex": "0xba",
      "blockHash": "0x38ee637e0eb2b0eb7ac0fd814e0b976cd30047957f251b02f9cb12837dd7a1fd",
      "blockNumber": "0x843ddf",
      "gasUsed": "0x3ba10",
      "effectiveGasPrice": "0x950ed116",
      "from": "0xf6ac8a8715024fe9ff592d6a3f186e2b502b356a",
      "to": "0x76735e5bd54c3ddb1cb74c3439cf17fca226b3a5",
      "contractAddress": null
    }
  ],
  "libraries": [],
  "pending": [],
  "returns": {},
  "timestamp": 1751344609,
  "chain": 11155111,
  "commit": "0c61483"
}