{
  "transactions": [
    {
      "hash": "0x0184566440a405fa5f9da07d33738cd0362c2130a98655c793f51d517f9cb949",
      "transactionType": "CALL",
      "contractName": null,
      "contractAddress": "0x779877a7b0d9e8603169ddbd7836e478b4624789",
      "function": "approve(address,uint256)",
      "arguments": [
        "0x0BF3dE8c5D3e8A2B34D2BEeB17ABfCeBaf363A59",
        "32983856874997122"
      ],
      "transaction": {
        "from": "0xf6ac8a8715024fe9ff592d6a3f186e2b502b356a",
        "to": "0x779877a7b0d9e8603169ddbd7836e478b4624789",
        "gas": "0x1081f",
        "value": "0x0",
        "input": "0x095ea7b30000000000000000000000000bf3de8c5d3e8a2b34d2beeb17abfcebaf363a5900000000000000000000000000000000000000000000000000752ea4a05b4582",
        "nonce": "0x80",
        "chainId": "0xaa36a7"
      },
      "additionalContracts": [],
      "isFixedGasLimit": false
    },
    {
      "hash": "0xc323d954e2dc54120c2d3c1b26e6ec6afa7f91babd03598dcf9220286ae5d5b9",
      "transactionType": "CALL",
      "contractName": null,
      "contractAddress": "0x845f4ead7310eb3b30b99a50c1d24c9e37d8478b",
      "function": "approve(address,uint256)",
      "arguments": [
        "0x0BF3dE8c5D3e8A2B34D2BEeB17ABfCeBaf363A59",
        "100000"
      ],
      "transaction": {
        "from": "0xf6ac8a8715024fe9ff592d6a3f186e2b502b356a",
        "to": "0x845f4ead7310eb3b30b99a50c1d24c9e37d8478b",
        "gas": "0x10c49",
        "value": "0x0",
        "input": "0x095ea7b30000000000000000000000000bf3de8c5d3e8a2b34d2beeb17abfcebaf363a5900000000000000000000000000000000000000000000000000000000000186a0",
        "nonce": "0x81",
        "chainId": "0xaa36a7"
      },
      "additionalContracts": [],
      "isFixedGasLimit": false
    },
    {
      "hash": "0xfcf944defc39da66934ad2132b759318cc90bfa20f0b6164c627dd0952ff1387",
      "transactionType": "CALL",
      "contractName": null,
      "contractAddress": "0x0bf3de8c5d3e8a2b34d2beeb17abfcebaf363a59",
      "function": "ccipSend(uint64,(bytes,bytes,(address,uint256)[],address,bytes))",
      "arguments": [
        "3478487238524512106",
        "(0x000000000000000000000000f6ac8a8715024fe9ff592d6a3f186e2b502b356a, 0x, [(0x845F4Ead7310EB3B30b99A50c1D24c9e37d8478b, 100000)], 0x779877A7B0D9E8603169DdbD7836e478b4624789, 0x)"
      ],
      "transaction": {
        "from": "0xf6ac8a8715024fe9ff592d6a3f186e2b502b356a",
        "to": "0x0bf3de8c5d3e8a2b34d2beeb17abfcebaf363a59",
        "gas": "0x50594",
        "value": "0x0",
        "input": "0x96f4e9f9000000000000000000000000000000000000000000000000304611b6affba76a000000000000000000000000000000000000000000000000000000000000004000000000000000000000000000000000000000000000000000000000000000a000000000000000000000000000000000000000000000000000000000000000e00000000000000000000000000000000000000000000000000000000000000100000000000000000000000000779877a7b0d9e8603169ddbd7836e478b462478900000000000000000000000000000000000000000000000000000000000001600000000000000000000000000000000000000000000000000000000000000020000000000000000000000000f6ac8a8715024fe9ff592d6a3f186e2b502b356a00000000000000000000000000000000000000000000000000000000000000000000000000000000000000000000000000000000000000000000000000000001000000000000000000000000845f4ead7310eb3b30b99a50c1d24c9e37d8478b00000000000000000000000000000000000000000000000000000000000186a00000000000000000000000000000000000000000000000000000000000000000",
        "nonce": "0x82",
        "chainId": "0xaa36a7"
      },
      "additionalContracts": [],
      "isFixedGasLimit": false
    }
  ],
  "receipts": [
    {
      "status": "0x1",
      "cumulativeGasUsed": "0x2076d0d",
      "logs": [
        {
          "address": "0x779877a7b0d9e8603169ddbd7836e478b4624789",
          "topics": [
            "0x8c5be1e5ebec7d5bd14f71427d1e84f3dd0314c0f7b2291e5b200ac8c7c3b925",
            "0x000000000000000000000000f6ac8a8715024fe9ff592d6a3f186e2b502b356a",
            "0x0000000000000000000000000bf3de8c5d3e8a2b34d2beeb17abfcebaf363a59"
          ],
          "data": "0x00000000000000000000000000000000000000000000000000752ea4a05b4582",
          "blockHash": "0xc952b0e16134959b8399560bc173adbab208be1cd175ce7c4c8ddeb802911f19",
          "blockNumber": "0x843e24",
          "blockTimestamp": "0x6863691c",
          "transactionHash": "0x0184566440a405fa5f9da07d33738cd0362c2130a98655c793f51d517f9cb949",
          "transactionIndex": "0x132",
          "logIndex": "0x1f5",
          "removed": false
        }
      ],
      "logsBloom": "0x00000004000040000000000000000000000000000000000000000000000080000000000000000000000000000000000000000000000000000000000000200000000000000000000000000000000000000000000000000000000000000000000000000000000100000000000000000000000000000000000000000000000000000000000000000000000000000000800000000000000000000000000000000000020020000000080000000000000000000000000000000000000000000000000000000000000000000000000000004000000000000000000100000000000000000010000000000000000000000000000000000000000000000000000000000000",
      "type": "0x2",
      "transactionHash": "0x0184566440a405fa5f9da07d33738cd0362c2130a98655c793f51d517f9cb949",
      "transactionIndex": "0x132",
      "blockHash": "0xc952b0e16134959b8399560bc173adbab208be1cd175ce7c4c8ddeb802911f19",
      "blockNumber": "0x843e24",
      "gasUsed": "0xb499",
      "effectiveGasPrice": "0xbbeaecc0",
      "from": "0xf6ac8a8715024fe9ff592d6a3f186e2b502b356a",
      "to": "0x779877a7b0d9e8603169ddbd7836e478b4624789",
      "contractAddress": null
    },
    {
      "status": "0x1",
      "cumulativeGasUsed": "0x208247f",
      "logs": [
        {
          "address": "0x845f4ead7310eb3b30b99a50c1d24c9e37d8478b",
          "topics": [
            "0x8c5be1e5ebec7d5bd14f71427d1e84f3dd0314c0f7b2291e5b200ac8c7c3b925",
            "0x000000000000000000000000f6ac8a8715024fe9ff592d6a3f186e2b502b356a",
            "0x0000000000000000000000000bf3de8c5d3e8a2b34d2beeb17abfcebaf363a59"
          ],
          "data": "0x00000000000000000000000000000000000000000000000000000000000186a0",
          "blockHash": "0xc952b0e16134959b8399560bc173adbab208be1cd175ce7c4c8ddeb802911f19",
          "blockNumber": "0x843e24",
          "blockTimestamp": "0x6863691c",
          "transactionHash": "0xc323d954e2dc54120c2d3c1b26e6ec6afa7f91babd03598dcf9220286ae5d5b9",
          "transactionIndex": "0x133",
          "logIndex": "0x1f6",
          "removed": false
        }
      ],
      "logsBloom": "0x00000000000040000000000000000000000000000000000000000000000080000000000000000000000000000000000000000000000000080000000000200000000000000000000000000000000000000000000000000000000000000000000000000000000100000000000000000000000000000000000000000000000000000000000000000000000000000000000000000000000000000000000000000000020020000000080000000000000000000002000000000000000000000000000000000000000000000000000000004000000000000000000000000000000000000010000000000000000000000000000000000000000000010000000000000000",
      "type": "0x2",
      "transactionHash": "0xc323d954e2dc54120c2d3c1b26e6ec6afa7f91babd03598dcf9220286ae5d5b9",
      "transactionIndex": "0x133",
      "blockHash": "0xc952b0e16134959b8399560bc173adbab208be1cd175ce7c4c8ddeb802911f19",
      "blockNumber": "0x843e24",
      "gasUsed": "0xb772",
      "effectiveGasPrice": "0xbbeaecc0",
      "from": "0xf6ac8a8715024fe9ff592d6a3f186e2b502b356a",
      "to": "0x845f4ead7310eb3b30b99a50c1d24c9e37d8478b",
      "contractAddress": null
    },
    {
      "status": "0x1",
      "cumulativeGasUsed": "0x20bc73c",
      "logs": [
        {
          "address": "0x779877a7b0d9e8603169ddbd7836e478b4624789",
          "topics": [
            "0xddf252ad1be2c89b69c2b068fc378daa952ba7f163c4a11628f55a4df523b3ef",
            "0x000000000000000000000000f6ac8a8715024fe9ff592d6a3f186e2b502b356a",
            "0x000000000000000000000000bc09627e58989ba8f1eda775e486467d2a00944f"
          ],
          "data": "0x00000000000000000000000000000000000000000000000000752ea4a05b4582",
          "blockHash": "0xc952b0e16134959b8399560bc173adbab208be1cd175ce7c4c8ddeb802911f19",
          "blockNumber": "0x843e24",
          "blockTimestamp": "0x6863691c",
          "transactionHash": "0xfcf944defc39da66934ad2132b759318cc90bfa20f0b6164c627dd0952ff1387",
          "transactionIndex": "0x134",
          "logIndex": "0x1f7",
          "removed": false
        },
        {
          "address": "0x779877a7b0d9e8603169ddbd7836e478b4624789",
          "topics": [
            "0x8c5be1e5ebec7d5bd14f71427d1e84f3dd0314c0f7b2291e5b200ac8c7c3b925",
            "0x000000000000000000000000f6ac8a8715024fe9ff592d6a3f186e2b502b356a",
            "0x0000000000000000000000000bf3de8c5d3e8a2b34d2beeb17abfcebaf363a59"
          ],
          "data": "0x0000000000000000000000000000000000000000000000000000000000000000",
          "blockHash": "0xc952b0e16134959b8399560bc173adbab208be1cd175ce7c4c8ddeb802911f19",
          "blockNumber": "0x843e24",
          "blockTimestamp": "0x6863691c",
          "transactionHash": "0xfcf944defc39da66934ad2132b759318cc90bfa20f0b6164c627dd0952ff1387",
          "transactionIndex": "0x134",
          "logIndex": "0x1f8",
          "removed": false
        },
        {
          "address": "0x845f4ead7310eb3b30b99a50c1d24c9e37d8478b",
          "topics": [
            "0xddf252ad1be2c89b69c2b068fc378daa952ba7f163c4a11628f55a4df523b3ef",
            "0x000000000000000000000000f6ac8a8715024fe9ff592d6a3f186e2b502b356a",
            "0x000000000000000000000000ea9600b34ab8e04e7fbc8b496cf5bca45e32bd06"
          ],
          "data": "0x00000000000000000000000000000000000000000000000000000000000186a0",
          "blockHash": "0xc952b0e16134959b8399560bc173adbab208be1cd175ce7c4c8ddeb802911f19",
          "blockNumber": "0x843e24",
          "blockTimestamp": "0x6863691c",
          "transactionHash": "0xfcf944defc39da66934ad2132b759318cc90bfa20f0b6164c627dd0952ff1387",
          "transactionIndex": "0x134",
          "logIndex": "0x1f9",
          "removed": false
        },
        {
          "address": "0x845f4ead7310eb3b30b99a50c1d24c9e37d8478b",
          "topics": [
            "0xddf252ad1be2c89b69c2b068fc378daa952ba7f163c4a11628f55a4df523b3ef",
            "0x000000000000000000000000ea9600b34ab8e04e7fbc8b496cf5bca45e32bd06",
            "0x0000000000000000000000000000000000000000000000000000000000000000"
          ],
          "data": "0x00000000000000000000000000000000000000000000000000000000000186a0",
          "blockHash": "0xc952b0e16134959b8399560bc173adbab208be1cd175ce7c4c8ddeb802911f19",
          "blockNumber": "0x843e24",
          "blockTimestamp": "0x6863691c",
          "transactionHash": "0xfcf944defc39da66934ad2132b759318cc90bfa20f0b6164c627dd0952ff1387",
          "transactionIndex": "0x134",
          "logIndex": "0x1fa",
          "removed": false
        },
        {
          "address": "0xbc09627e58989ba8f1eda775e486467d2a00944f",
          "topics": [
            "0xd0c3c799bf9e2639de44391e7f524d229b2b55f5b1ea94b2bf7da42f7243dddd"
          ],
          "data": "0x0000000000000000000000000000000000000000000000000000000000000020000000000000000000000000000000000000000000000000de41ba4fc9d91ad9000000000000000000000000f6ac8a8715024fe9ff592d6a3f186e2b502b356a000000000000000000000000f6ac8a8715024fe9ff592d6a3f186e2b502b356a0000000000000000000000000000000000000000000000000000000000001d970000000000000000000000000000000000000000000000000000000000030d4000000000000000000000000000000000000000000000000000000000000000000000000000000000000000000000000000000000000000000000000000000002000000000000000000000000779877a7b0d9e8603169ddbd7836e478b462478900000000000000000000000000000000000000000000000000752ea4a05b458200000000000000000000000000000000000000000000000000000000000001a000000000000000000000000000000000000000000000000000000000000001c000000000000000000000000000000000000000000000000000000000000002207d8ade7858a9ed71c40dfa8199d2e3f9e034785ca2781796f40c1f59f1f9965900000000000000000000000000000000000000000000000000000000000000000000000000000000000000000000000000000000000000000000000000000001000000000000000000000000845f4ead7310eb3b30b99a50c1d24c9e37d8478b00000000000000000000000000000000000000000000000000000000000186a00000000000000000000000000000000000000000000000000000000000000001000000000000000000000000000000000000000000000000000000000000002000000000000000000000000000000000000000000000000000000000000001600000000000000000000000000000000000000000000000000000000000000020000000000000000000000000000000000000000000000000000000000000008000000000000000000000000000000000000000000000000000000000000000c000000000000000000000000000000000000000000000000000000000000001000000000000000000000000000000000000000000000000000000000000015f900000000000000000000000000000000000000000000000000000000000000020000000000000000000000000ea9600b34ab8e04e7fbc8b496cf5bca45e32bd0600000000000000000000000000000000000000000000000000000000000000200000000000000000000000005853737452b1818c38dd1ebd861663c5c497843100000000000000000000000000000000000000000000000000000000000000200000000000000000000000000000000000000000000000000000000ba43b7400",
          "blockHash": "0xc952b0e16134959b8399560bc173adbab208be1cd175ce7c4c8ddeb802911f19",
          "blockNumber": "0x843e24",
          "blockTimestamp": "0x6863691c",
          "transactionHash": "0xfcf944defc39da66934ad2132b759318cc90bfa20f0b6164c627dd0952ff1387",
          "transactionIndex": "0x134",
          "logIndex": "0x1fb",
          "removed": false
        }
      ],
      "logsBloom": "0x00000004080040000000000000000000000000000000000000000000000080000000000000000000000000000000000000000000000000080000000000200000000100000000000000000008000000000000000000000000000000200000000000020000020100800000000000000800000000000000000000000010000000000000000000000000000000000000800000000000000000000000000000000000020020000000080400400000000000000002000000000000000100000000000000000002002000000000000002004000000000000000000100000000000020000010000000000000000000000000000004000000000000050000000000000000",
      "type": "0x2",
      "transactionHash": "0xfcf944defc39da66934ad2132b759318cc90bfa20f0b6164c627dd0952ff1387",
      "transactionIndex": "0x134",
      "blockHash": "0xc952b0e16134959b8399560bc173adbab208be1cd175ce7c4c8ddeb802911f19",
      "blockNumber": "0x843e24",
      "gasUsed": "0x3a2bd",
      "effectiveGasPrice": "0xbbeaecc0",
      "from": "0xf6ac8a8715024fe9ff592d6a3f186e2b502b356a",
      "to": "0x0bf3de8c5d3e8a2b34d2beeb17abfcebaf363a59",
      "contractAddress": null
    }
  ],
  "libraries": [],
  "pending": [],
  "returns": {},
  "timestamp": 1751345438,
  "chain": 11155111,
  "commit": "0c61483"
}